:020000040800F2
:100000008806002089010008DF0B0008FD0A0008AF
:10001000DD0B00088F0200083B0C00080000000008
:10002000000000000000000000000000E30B0008DA
:100030009102000800000000E10B0008E50B000839
:10004000A3010008A3010008A3010008A301000800
:10005000A3010008A3010008930200089902000808
:100060009F020008A5020008AB020008A3010008D7
:10007000A3010008A3010008A3010008A3010008D0
:10008000A3010008A3010008A3010008A3010008C0
:10009000A3010008A3010008A3010008B1020008A1
:1000A000A3010008A3010008A3010008A3010008A0
:1000B000A3010008A301000800000000A30100083C
:1000C000A30100080000000000000000A3010008D8
:1000D00000000000A3010008A301000800000000C8
:1000E000A3010008A3010008A301000800F002F822
:1000F00000F03AF80AA090E8000C82448344AAF188
:100100000107DA4501D100F02FF8AFF2090EBAE885
:100110000F0013F0010F18BFFB1A43F0010318473B
:10012000040D0000240D0000103A24BF78C878C1E7
:10013000FAD8520724BF30C830C144BF04680C60ED
:10014000704700000023002400250026103A28BF35
:1001500078C1FBD8520728BF30C148BF0B60704739
:100160001FB51FBD10B510BD00F058F81146FFF7C0
:10017000F7FF00F0CBFD00F076F803B4FFF7F2FFD5
:1001800003BC00F07DF8000009488047094800479B
:10019000FEE7FEE7FEE7FEE7FEE7FEE7FEE7FEE737
:1001A000FEE7FEE704480549054A064B7047000094
:1001B000390C0008ED0000088800002088060020A7
:1001C00088020020880200204FF0000200B513468C
:1001D00094469646203922BFA0E80C50A0E80C5067
:1001E000B1F12001BFF4F7AF090728BFA0E80C5018
:1001F00048BF0CC05DF804EB890028BF40F8042B11
:1002000008BF704748BF20F8022B11F0804F18BF7D
:1002100000F8012B7047704770477047754600F033
:100220002BF8AE4605006946534620F00700854688
:1002300018B020B5FFF7B6FFBDE820404FF000062C
:100240004FF000074FF000084FF0000B21F00701BE
:10025000AC46ACE8C009ACE8C009ACE8C009ACE801
:10026000C0098D46704710B50446AFF300802046A4
:10027000BDE81040FFF781BF00487047280000200C
:1002800001491820ABBEFEE7260002007047FEE7DA
:100290007047012000F032B8022000F02FB804208F
:1002A00000F02CB8082000F029B8102000F026B883
:1002B000202000F023B8000070B5044600F010F9CB
:1002C0000546601C02D004480078044400F008F998
:1002D000401BA042FAD370BD180000200649012837
:1002E00005D0022802D14868401C48607047086861
:1002F000401C08607047000000000020044910B551
:100300000A68024202D00860FFF7E8FF10BD000053
:10031000140401402DE9F84FDFF89C91002409F105
:10032000040A0AF1040B23460F270BF1040EBBE06D
:100330000125A5402A40AA4276D1DFF880C14E6847
:10034000A6EB0C0866452BD00DDC032E34D005DC63
:1003500036B3012E19D0022E2FD11BE0112E16D04C
:10036000122E2AD119E0B8F5881F19D006DCB8F58D
:10037000803F15D0B8F5801F1FD111E0B8F5001FE0
:100380000ED0B8F5041F18D10AE0CB6815E0CB6891
:100390001B1D12E0CB6808330FE0CB680C330CE078
:1003A0008B682BB1012B4FF0080303D0456104E0AB
:1003B000042302E0056100E00023FF2A01D806467D
:1003C00001E000F104064FEA840501D9A5F12005FA
:1003D000D6F8008007FA05FC28EA0C0803FA05F5B0
:1003E00048EA0508C6F800804D68ED005BD5344D3D
:1003F000AE6946F00106AE61AD6924F0030605F072
:10040000010500952F4D06EB050CDCF80850A607FA
:10041000360F07FA06F825EA0805DFF8AC804045F4
:1004200003D14FF0000810E03DE0DFF8A080404528
:1004300002D14FF0010808E0DFF89480404502D176
:100440004FF0020801E04FF0030808FA06F848EA06
:100450000508CCF808804D68D9F80060ED034D46DA
:1004600001D5164300E096432E604D68DAF800602F
:10047000AD03554601D5164300E096432E604D6806
:10048000DBF80060ED025D4601D5164300E09643BF
:100490002E604D68DEF80060AD02754601D516434A
:1004A00000E096432E60641C0A6832FA04F57FF47B
:1004B0003FAFBDE8F88F00000004014000001110BC
:1004C000001002400000014000080140000C014003
:1004D000001001400AB1016170470904FBE7000008
:1004E00001488068704700001800002002488168B9
:1004F000027811448160704718000020074810B549
:10050000016841F010010160032000F075F800203F
:1005100000F006F800F024F8002010BD0020024092
:1005200070B50D4D04464FF47A712878B1FBF0F0A8
:100530000A490968B1FBF0F000F0CCFA48B9102C78
:1005400007D200222146501E00F036F800206C60D1
:1005500070BD012070BD00001800002024000020A4
:100560000C4808B5816941F001018161816901F0A0
:1005700001010091C16941F08051C161C06900F081
:10058000805000900448416821F0E06141F0007122
:10059000416008BD0010024000000140002809DB56
:1005A00000F01F02012191404009800000F1E0208D
:1005B000C0F8001170470000F0B40E4B1B680C46E9
:1005C000C3F30223C3F10705042D00D90425191D27
:1005D000072901D2002300E0DB1E012606FA05F1FF
:1005E000491E214099409E40761E16403143F0BC82
:1005F00000F024BB0CED00E0064900F0070208689B
:100600004FF6FF03184040EA0220034A10430860F7
:10061000704700000CED00E00000FA052DE9F047FE
:100620000F46050061D0434E306800F00700B84225
:1006300009D2306820F0070038433060306800F09D
:100640000700B84251D128683B4C810712D54007BA
:1006500003D5606840F4E06060602878000703D547
:10066000606840F4605060606068A96820F0F00045
:10067000084360602878C00728D06868012810D037
:100680002168022810D0890700292EDA616821F03C
:10069000030101436160FFF723FF804641F288397F
:1006A0000DE021688903EFE78901EDE7FFF718FF07
:1006B000A0EB0801494502D90320BDE8F087606836
:1006C000696800F00C00B0EB810FEFD1306800F0EA
:1006D0000700B8420BD9306820F00700384330607B
:1006E000306800F00700B84201D00120E5E7287823
:1006F000400705D56068E96820F4E0600843606061
:100700002878000706D56068296920F4605040EA1F
:10071000C100606000F018F86168084AC1F3031175
:10072000515CC8400649086006480068FFF7F8FEBB
:100730000020C2E70020024000100240140E000812
:10074000240000201C00002012A185B00FC98DE8F4
:100750000F0014A0144A006804905168134801F077
:100760000C03042B10D0082B0ED1C1F38343C90313
:100770001DF803000AD5516804AAC1F34041515C39
:100780000A4A5043B0FBF1F005B0704708494843AE
:10079000FAE7000002030405060708090A0B0C0D1E
:1007A0000E0F1010010200000010024000127A002B
:1007B00000093D002DE9F84F040070D02078C04DAD
:1007C000C00749D06868C0F38100012807D0686875
:1007D000C0F38100022809D16868C00306D52868E3
:1007E000800339D560680028E7D035E06068B0F54F
:1007F000803F0BD010B1B0F5A02F11D0286820F4A5
:1008000080302860286820F4802002E0286840F4C6
:1008100080302860606890B1FFF762FE06460AE00B
:10082000286840F480202860F0E700BFFFF758FEFA
:10083000801B642873D828688003F7D50CE0FFF785
:100840004FFE064605E000BFFFF74AFE801B642806
:10085000F0D828688003F7D420789A4E80074FF0AC
:1008600001094FF0000839D5686810F00C0F07D067
:100870006868C0F38100022809D16868C00306D403
:100880002868800714D52069012808D110E0206964
:10089000B0B1C6F80090FFF723FE074605E00AE175
:1008A000FFF71EFEC01B0228C4D828688007F7D5B2
:1008B0002868616920F0F80040EAC10028600DE076
:1008C000C6F80080FFF70CFE074604E0FFF708FEBD
:1008D000C01B022823D828688007F7D42078000797
:1008E0002CD57948A169D9B1C0F80090FFF7F8FD7F
:1008F000074604E0FFF7F4FDC01B02280FD8686A22
:100900008007F7D571484FF4FA510068B0FBF1F059
:10091000009000BF0098411E0091FAD20EE080E0E6
:10092000C0F80080FFF7DCFD074604E0FFF7D8FDC4
:10093000C01B022875D8686A8007F7D42078400762
:1009400060D5E8690027C00008D4E86940F080500D
:10095000E861E869012700F0805000905C48016878
:10096000C90513D40168834641F480710160FFF723
:10097000B7FD824606E000BFFFF7B2FDA0EB0A001C
:1009800064284ED8DBF80000C005F5D5E0680128E2
:100990000AD008B1052813D0286A20F00100286287
:1009A000286A20F0040002E0286A40F00100286272
:1009B000E06841F2883B98B1FFF792FD82460BE078
:1009C000286A40F004002862EEE700BFFFF788FDC8
:1009D000A0EB0A0159455AD8286A8007F6D50CE0E1
:1009E000FFF77EFD824605E0FFF77AFDA0EB0A01E6
:1009F00059454CD8286A8007F6D41FB1E86920F021
:100A00008050E861E06988B36968C1F38101022917
:100A100044D00228C6F8608004D0FFF761FD044688
:100A200038E034E0FFF75CFD074604E0FFF758FDCF
:100A3000C01B02282BD828688001F7D4206AB0F5A3
:100A4000803F05D16868A16820F4003008436860E1
:100A5000D4E908010843696821F474110843686007
:100A6000C6F86090FFF73CFD044606E025E000BFB5
:100A7000FFF736FD001B022809D828688001F7D54A
:100A80001BE000BFFFF72CFD001B022802D903204A
:100A9000BDE8F88F28688001F4D40EE00128F7D073
:100AA0006868226A00F48031914204D1616A00F4DE
:100AB0007010884201D00120EAE70020E8E700003A
:100AC0000010024000004242800442422400002004
:100AD0000070004010B5401EB0F1807F01D30120AE
:100AE00010BD4FF0E02460610F21601700F0A6F800
:100AF0000020A06107202061002010BDFEE700005B
:100B0000F0B585B000243148009401940294039418
:100B1000816941F004018161816901F0040104915E
:100B2000816941F0080181618069294F00F0080066
:100B300040F60F460490002231463846FFF7CAFCC3
:100B40003F20009023480125CDE901056946224850
:100B5000FFF7E0FB0220CDE90240CDE900656946E0
:100B60003846FFF7D7FB002201210620FFF724FDBE
:100B70000620FFF713FD002201210720FFF71CFDCF
:100B80000720FFF70BFD002201210820FFF714FDCD
:100B90000820FFF703FD002201210920FFF70CFDCB
:100BA0000920FFF7FBFC002201210A20FFF704FDCA
:100BB0000A20FFF7F3FC002201211720FFF7FCFCBD
:100BC0001720FFF7EBFC05B0F0BD0000001002405D
:100BD000000C01400000211000080140FEE7FEE784
:100BE00070477047FFF782BC10B590B02821684667
:100BF000FFF7EAFA14210AA8FFF7E6FA02200090AC
:100C00000120049010200024059007946846FFF707
:100C1000D1FD08B172B6FEE70F20CDE90A040C94AD
:100C20000D9400210AA80E94FFF7F8FC002801D0CB
:100C300072B6FEE710B010BD7047FEE70907090E57
:100C4000002804DB00F1E02080F80014704700F079
:100C50000F0000F1E02080F8141D70470A4A0A28AE
:100C600002DA1178105C0CE007490B18142803DA3B
:100C7000517813F80A0C04E0182804DA917813F874
:100C8000140C00F003B870470C0000202DE9F0416F
:100C900000261D4D0F468046802400BF24FA06F230
:100CA00002EA080202212846FFF714FC0022012173
:100CB0002846FFF70FFC012211462846FFF70AFCE1
:100CC000761C082EEADB002624FA06F23A400221BE
:100CD0002846FFF7FFFB002201212846FFF7FAFB19
:100CE000012211462846FFF7F5FB761C082EEBDBA8
:100CF000002208212846FFF7EDFB2846BDE8F04119
:100D000001220821FFF7E6BB000C0140FFF7F6FBCC
:100D1000FFF76AFFFFF7F4FE0025134C4FF47A76D5
:100D20001DE000BF00F04CF8606800F01FF820687C
:100D3000FFF794FF3046FFF7BFFAA068401CA060A1
:100D400000E0A0683C28EDDB6068401CC4E90105B8
:100D500060683C28F5DB2068401CC4E90005206879
:100D60001828F5DB2560FAE700000020134A0A285E
:100D700002DA1178105C1EE010490B18142803DA0F
:100D8000517813F80A0C16E01E2803DA917813F84C
:100D9000140C10E0282803DAD17813F81E0C0AE0AE
:100DA000322803DA117913F8280C04E03C2804DA1D
:100DB000517913F8320CFFF769BF70470C0000201F
:100DC000134A0A2802DA1178105C1EE010490B1849
:100DD000142803DA517813F80A0C16E01E2803DAF7
:100DE000917813F8140C10E0282803DAD17813F85E
:100DF0001E0C0AE0322803DA117913F8280C04E0FB
:100E00003C2804DA517913F8320CFFF73FBF7047E2
:100E10000C0000200000000000000000010203049C
:100E200006070809440E0008000000202800000002
:100E3000280100086C0E0008280000206006000051
:100E40004401000800000000000000000000000055
:100E500040792430191202780010000001000000CF
:0C0E600010000000000000000024F4005E
:04000005080000ED02
:00000001FF
